:0600000001288801BA2C62
:10096800640080010131890BB52C00342030FC0172
:10097800FD018400003085001630B42420002D2E9F
:1009880071087004031908000B1DC82C01300B11E5
:10099800F0020030F13BC42C3408653A031DD62C14
:1009A8008E1608003408643A031DDC2C8E120800E9
:1009B80033080319E12CB30308003408B3002030CE
:1009C8008E0608000330FC005830AC000230AD0041
:1009D8001030B400AD30A600C230A701B000053019
:1009E800B1005B30A2000130A300EC274030BC000E
:1009F800BD0121000C1208002F083102031D062D2D
:100A08002E0830020318132D3F0803190D2DBF03BC
:100A1800132D7D080319122DA801A901FD01250830
:100A28002702031D192D2408260203180800FD08B3
:100A3800031D202DA801A9010430FD01FD0ABF00F6
:100A480008002000B801B80AB9016400FD300B1194
:100A580021009D00FF302000B600B7004030FD01A6
:100A6800BC000430BD01BF003D30BE00E730BA0015
:100A78000330BB00FC01A601A701B001B101C00110
:100A8800C00AB801B9014B2521000C160800390825
:100A9800803AFF0080307F02031D542D0130380258
:100AA80003185A2D2000B801B80AB90120003908E6
:100AB800803AFF00F3307F02031D642D3D30380279
:100AC800031C6B2D3C302000B8007330B9002000A7
:100AD800390829009C002000380829009B000800DC
:100AE8007830210099004330950020008C01CE30E9
:100AF80021008C00C63023008C00103020008E00AE
:100B0800CC3021008E0023008E00083024008C0099
:100B1800013022009D008F309700813021009D0018
:100B2800D0309E00043020009C00C13029009E0077
:100B3800A0309F009C019B010800F501F11FAB2D1F
:100B4800F009F109F00A0319F10AF501F50AF31F92
:100B5800B42DF209F309F20A0319F30A0130F50674
:100B6800F601F701710870040319D42DF401F40A91
:100B7800F11BC12DF035F10DBB2DF635F70D7108C0
:100B88007302031DC92D70087202031CD02D700852
:100B9800F2027108F33B7614F136F00CF40BC12D18
:100BA80075080319DC2DF609F709F60A0319F70A7F
:100BB8007708F1007608F0000800853021009D00D4
:100BC8000330F000F00BE62D2000B601B701B501A7
:100BD80021009D149D18EE2D1B081A26031CEC2DD0
:100BE8003708A5003608A4009D3021009D00033079
:100BF800F000F00BFD2D2000B601B701B501210072
:100C08009D149D18052E1B081A26031C032E370851
:100C1800AF003608AE00893021009D000330F00097
:100C2800F00B142E2000B601B70108002000B6070B
:100C38000318B70A21001C08F000F101F100F001C7
:100C480070082000B6077108B73D0430B50A3502B0
:100C5800080074252525F430F0000130F100C42483
:100C68000B1D5D2E0B1120003E08031DBE033B0823
:100C78003A040319432E0130BA020030BB3BE12588
:100C880003307C02031C5D2E0025FD08031D542E35
:100C98002F08F9002E08F8003108FB0030085B2EF9
:100CA8002508F9002408F8002708FB002608FA00A0
:100CB80083262000BE08031D792E3D30BE00031098
:100CC8008C1D03140030093D40050319732EFC08E0
:100CD800031D702EE624732E6430FC01B40000302E
:100CE80020008C190130C000D0243B083A04031DB1
:100CF800342ED030BA000330BB002E27342E7B08A8
:100D0800C4007A08C3007808C3027908C43B4408C1
:100D1800803AFF0090307F02031D942E003043027A
:100D2800031C9B2EFF302000C3000F30C40020009E
:100D38004408803AFF0070307F02031DA52E013061
:100D480043020318AC2E01302000C300F030C40069
:100D580020003D083C04031D122F4408AB00430843
:100D6800AA004308A8074408A93D2908803AFF00BB
:100D780090307F02031DC22E00302802031CC92EAA
:100D8800FF302000A8000F30A90020002908803A71
:100D9800FF0070307F02031DD32E01302802031894
:100DA800DA2E01302000A800F030A90020002B081E
:100DB800C2002A08C1000130F001F1002908F3003F
:100DC8002808F200A1257008C1077108C23D420831
:100DD800803AFF0090307F02031DF42E003041025C
:100DE800031CFB2EFF302000C1000F30C200200082
:100DF8004208803AFF0070307F02031D052F013042
:100E0800410203180C2F01302000C100F030C2004D
:100E180020004108B8074208B93D2D2F0130BC0217
:100E28000030BD3B4408803AFF0080307F02031D3C
:100E38001F2F01304302031C262F2000B80A031974
:100E4800B90A2B2FFF302000B807031CB903A801EB
:100E5800A9014B2D7C08033A031D4C2F1030B40018
:100E680004302F02333003192E020318492F2D089E
:100E78002C040319442F0130AC020030AD3B0800AC
:100E88001030FC01FC0AB40008000430FA270800FE
:100E98007C08043A031D8E2F1030B400FD08031D92
:100EA800732F23082502031D5B2F22082402031831
:100EB800682F32080319622FB203782F2508A30080
:100EC8002408A200EC27782F0530B200210820045E
:100ED8000319782F0130A0020030A13B782FEC27AE
:100EE8005B30A2000130A300003023022330031935
:100EF8002202031C832F21082004031D080005304B
:100F0800FC00C030AC00A830AD006630B000053041
:100F1800B10008007C08053A031DAE2F6530B40007
:100F28002D082C0403199D2F0130AC020030AD3B75
:100F38009F2F0230FC00A8302D02B63003192C0276
:100F48000318080000302502103003192402031C7E
:100F5800FC010800FC08031DB82F6430B400F32717
:100F68004B2521000C1608007C0BBC2F0430B22F37
:100F78007C08023A031D08006530B40005302F02D2
:100F88000A3003192E020318E12F06302F026930A8
:100F980003192E02031CE12F0430FA27C230B000D7
:100FA8000530B1005B30A2000130A300EC274030CF
:100FB800BC00BD0121000C120800F3274B252100BD
:100FC80006300C1620002F02683003192E02AB2FB2
:100FD8000530B2005830A0000230A1000800B0016E
:100FE800B101A601A701B801B9010800FC005B30F6
:080FF800A6000130A70008006B
:020000040001F9
:04000E00A439FF1FF3
:00000001FF
